:1000000061C0000087C0000085C0000083C0000000
:1000100081C000007FC000007DC000007BC00000E8
:1000200079C0000077C0000075C0000073C00000F8
:1000300071C000000C94520A6DC000006BC000003B
:100040000C948A0D67C000000C940E100C944010A4
:1000500061C000005FC000005DC000005BC0000028
:1000600059C0000057C00000000000080002010055
:100070000003040700000000000000000102040863
:100080001020408001020408102001020408102002
:10009000040404040404040402020202020203032E
:1000A00003030303000000002300260029000000D2
:1000B0000000250028002B0000000000240027007D
:1000C0002A00651011241FBECFEFD8E0DEBFCDBFE0
:1000D00011E0A0E0B1E0E2EDF1E202C005900D9286
:1000E000AE35B107D9F722E0AEE5B1E001C01D920F
:1000F000AD3EB207E1F710E0C2E6D0E004C02197C0
:10010000FE010E94E110C136D107C9F70E94F10A31
:100110000C94E71075CFCF93DF93882349F0EB0160
:1001200081500E940F0E99838883DF91CF910895AB
:10013000FB0111821082F9CF0F931F938B019C0159
:1001400083E036952795179507958A95D1F7025A3A
:100150001E4F462F477021E030E0F90102C0EE0F3C
:10016000FF1F4A95E2F7AF01F80120812423CB015C
:100170000196211102C090E080E01F910F91089537
:100180000F931F938B019C0183E03695279517955C
:1001900007958A95D1F7677081E090E001C0880FDC
:1001A0006A95EAF7F801E25AFE4F2081452B31F4B7
:1001B0008095822380831F910F910895822BFACF1F
:1001C000CF92DF92EF92FF92CF93DF936B017C018E
:1001D00060E08EE0C816D104E104F10490F48EE0F2
:1001E0008C0D0E94530EE6012196AE01C701B601A7
:1001F000C7DFCE01DF91CF91FF90EF90DF90CF90DE
:1002000008958C2DEECF882341F08150682F70E047
:1002100090E080E050E040E0B3CF0895611102C06B
:100220000C94530E6130E1F362E0FACF662319F0CB
:1002300061E00C948F0E60E0FCCF0E94BC0E21E0C8
:10024000019709F020E0822F0895FC0191E0809150
:100250006A01811190E091830895CF92DF92EF922D
:10026000FF926B017C019F7720E030E040E05BE48F
:100270000E94A00B87FF2BC020E030E040E05FE34E
:10028000C701B6010E94230D87FD0EC020E030E0BB
:1002900040E05FE3C701B6010E94290BFF90EF9099
:1002A000DF90CF900C940D0C20E030E040E05FEB4D
:1002B000C701B6010E94230D181684F420E030E037
:1002C000A901C701B6010E94270D6B017C01C7017E
:1002D000B601FF90EF90DF90CF90089520E030E0DE
:1002E00040E05FE3C701B6010E94280BFF90EF904A
:1002F000DF90CF900C948D0BCF92DF92EF92FF9214
:100300006B017C019F7720E030E040E859E50E94D6
:10031000A00B87FF2BC020E030E040E05FE3C70187
:10032000B6010E94230D87FD0EC020E030E040E0C2
:100330005FE3C701B6010E94290BFF90EF90DF90A9
:10034000CF900C940D0C20E030E040E05FEBC70153
:10035000B6010E94230D181684F420E030E0A901B4
:10036000C701B6010E94270D6B017C01C701B601D0
:10037000FF90EF90DF90CF90089520E030E040E0D4
:100380005FE3C701B6010E94280BFF90EF90DF905A
:10039000CF900C948D0B80916A018F5F8A3058F456
:1003A00080936A0161E08091B502811160E0609301
:1003B000B5028DE03BCF10926A01F4CF3F924F928D
:1003C0005F926F927F928F929F92AF92BF92CF92E5
:1003D000DF92EF92FF920F931F93CF93DF9300D0A2
:1003E00000D000D0CDB7DEB7C0900001D0900101A1
:1003F000E0900201F0900301A7019601609145028F
:100400007091460280914702909148020E94A00B91
:10041000882341F0C0924502D0924602E092470202
:10042000F092480260E170E080E090E085DE909319
:1004300044028093430243E050E0BE016F5F7F4F70
:100440006ADE69817A8190E080E00E94D00B209181
:1004500030013091310140913201509133010E94BD
:10046000270D6B017C0180900C0190900D01A090F4
:100470000E01B0900F01A5019401609121027091CD
:10048000220280912302909124020E94A00B8823D3
:1004900041F08092210290922202A0922302B09217
:1004A000240263E170E080E090E046DE9093200259
:1004B00080931F0243E050E0BE016F5F7F4F2BDE51
:1004C00069817A8190E080E00E94D00B2091340114
:1004D0003091350140913601509137010E94270D2E
:1004E0009B01AC01C701B6010E94280B2DEC3CEC2E
:1004F0004CE45DE30E94230D87FF10C020E030E054
:1005000040E85FE36091A9027091AA028091AB027A
:100510009091AC020E94A00B81110CC180E090E090
:10052000A0E8BFE38093A9029093AA02A093AB0234
:10053000B093AC0201E010E080901401909015019E
:10054000A0901601B0901701A5019401609151028D
:100550007091520280915302909154020E94A00B1C
:10056000882341F08092510290925202A09253024D
:10057000B09254028AE061DE882309F4E6C040901C
:100580001C0150901D0160901E0170901F01B80168
:10059000110F880B990B0E94D20BA30192010E94AC
:1005A000290B6B837C838D839E83809010019090B8
:1005B0001101A0901201B0901301A5019401609166
:1005C0005D0270915E0280915F02909160020E94D4
:1005D000A00B882341F080925D0290925E02A0926F
:1005E0005F02B092600288E028DE382E809004011D
:1005F00090900501A0900601B0900701A50194011B
:100600006091390270913A0280913B0290913C02D4
:100610000E94A00B882341F08092390290923A0206
:10062000A0923B02B0923C0261E170E080E090E079
:1006300083DD909338028093370243E050E0BE019F
:100640006F5F7F4F68DD69817A8190E080E00E9472
:10065000D00B209138013091390140913A015091ED
:100660003B010E94270DF9DD4B015C01B8D68111D9
:1006700075C0C501B4018AD6811170C020E030E098
:1006800040E85FE4C501B4010E94270C4B015C0106
:1006900020E030E0A9010E94A00B87FF62C0C501E5
:1006A000B40190580E94A40B00271127061B170BBA
:1006B0008090080190900901A0900A01B0900B0170
:1006C000A501940160912D0270912E0280912F025C
:1006D000909130020E94A00B882341F080922D025D
:1006E00090922E02A0922F02B092300262E170E04E
:1006F00080E090E021DD90932C0280932B0243E078
:1007000050E0BE016F5F7F4F06DD8091B80281111E
:100710002DC081E08093B80284E08093B9021092EA
:10072000CF021092D0021092D1021092D20210E0A9
:1007300000E0A3C01092A9021092AA021092AB028C
:100740001092AC0210E000E0F7CE409020015090F3
:100750002101609022017090230119CF812C912CEE
:100760005401C501B401F0D78B01A2CF69817A8110
:1007700090E080E00E94D00B20913C0130913D013F
:1007800040913E0150913F010E94270D2091400170
:100790003091410140914201509143010E94270D47
:1007A000209144013091450140914601509147010B
:1007B00050D74B015C018091B902823009F411C11C
:1007C00010F5813079F1C8010297039708F40CC144
:1007D000012B09F409C1A701960150586091AD029F
:1007E0007091AE028091AF029091B0020E94270DED
:1007F0006093CF027093D0028093D1029093D20283
:1008000001E010E03AC0833009F41CC18430D9F60D
:10081000332009F48CCF015011090430110508F080
:1008200086CFE2C00430110530F41092BA0282E0A3
:100830008093B90204C18091BA02813079F082308C
:1008400009F485C02BEA3AEA4AEA5EE3C701B60139
:100850000E94230D18160CF484C00DC02BEA3AEA4E
:100860004AEA5EE3C701B6016BD718160CF449C01B
:1008700082E08093BA0204E010E02B813C814D813C
:100880005E81609128017091290180912A019091E7
:100890002B0156D787FF2AC0609124017091250152
:1008A000809126019091270127DD6B017C01B1D554
:1008B0008111F7C0C701B60140D58111F2C020E017
:1008C00030E040E85FE4C701B601C1D76B017C01AD
:1008D00020E030E0A90134D787FFE6C0C701B601A8
:1008E000905832D700271127061B170B8091B602AC
:1008F0008111DFC081E08093B60283E08093B7026C
:1009000024C12BEA3AEA4AEA5EE3C701B601A0D65F
:100910002091B1023091B2024091B3025091B402E1
:100920000E94270D20E030E040E450E40E94270DB3
:1009300020E030E040E05FE30E94270D6093CF02AB
:100940007093D0028093D1029093D20294CF2BEA7D
:100950003AEA4AEA5EE3C701B6010E94230D18167F
:1009600014F481E086CF20E030E0A901C701B60190
:100970000E94230D1816ACF02DEC3CEC4CE45DE32A
:10098000C501B401DDD6181664F083E08093BA0285
:100990001092CF021092D0021092D1021092D20285
:1009A0006ACF8090B1029090B202A090B302B09052
:1009B000B402B7FAB094B7F8B09420E030E040E465
:1009C00050E4C701B6010E94270D9B01AC0160E015
:1009D00070E080E89FE33CD69B01AC01C501B40107
:1009E000ABCF0330110570F483E08093B90210920D
:1009F000CF021092D0021092D1021092D20202E0E5
:100A000010E03BCF0430110531F481E08093B9024E
:100A10008093BA0232CFA70196016091B102709122
:100A2000B2028091B3029091B4020E94270D6093AC
:100A3000CF027093D0028093D1029093D20203E050
:100A400010E01BCF332009F4ECC120E030E040EA95
:100A500050ECC501B401F7D71816FCF4C801039790
:100A6000029708F4E4CE20E030E040EA50E4C5010B
:100A7000B4019F7765D687FFD8C10115110509F02C
:100A8000D4C184E08093B9021092CF021092D002B8
:100A90001092D1021092D202F0CE0430110519F753
:100AA000C6CEC12CD12C7601C701B6014DD68B0123
:100AB0001DCF8091B7028330D1F188F48130F9F0F5
:100AC000823049F10130110509F43FC01092BB0298
:100AD0001092BC021092BD021092BE020ECF843062
:100AE00009F489C1853071F7012B79F11092BF02A9
:100AF0001092C0021092C1021092C202FECE0430C7
:100B0000110519F11092CB021092CC021092CD0275
:100B10001092CE02F2CE03301105B9F01092C70246
:100B20001092C8021092C9021092CA02E6CE023098
:100B3000110509F440C108F006C10115110509F4B9
:100B40002AC10130110509F416C16091BB027091F0
:100B5000BC028091BD029091BE02CEDB6B017C0194
:100B600020E030E040E853E4EBD56FEF87FF0CC0A6
:100B700020E030E0A901C701B60165D760E087FD3C
:100B800003C0C701B601E0D582E050DB6091BF022F
:100B90007091C0028091C1029091C202ADDB6B01E5
:100BA0007C0120E030E040E853E4CAD56FEF87FFD6
:100BB0000CC020E030E0A901C701B60144D760E0D5
:100BC00087FD03C0C701B601BFD583E02FDB60916D
:100BD000C3027091C4028091C5029091C6028CDB61
:100BE0006B017C0120E030E040E853E4A9D56FEFD1
:100BF00087FF0CC020E030E0A901C701B60123D770
:100C000060E087FD03C0C701B6019ED584E00EDB1E
:100C10006091C7027091C8028091C9029091CA0286
:100C20006BDB6B017C0120E030E040E853E488D5C9
:100C30006FEF87FF0CC020E030E0A901C701B601CB
:100C400002D760E087FD03C0C701B6017DD585E00E
:100C5000EDDA6091CB027091CC028091CD0290913F
:100C6000CE024ADB6B017C0120E030E040E853E437
:100C700067D56FEF87FF0CC020E030E0A901C70106
:100C8000B601E1D660E087FD03C0C701B6015CD5BF
:100C900086E0CCDA2B813C814D815E8160912C0114
:100CA00070912D0180912E0190912F0149D587FFE0
:100CB000AFC0609118017091190180911A01909153
:100CC0001B0120E030E0A901BED660E011E087FD05
:100CD00002C061E010E087E0A9DA612F89E0A6DABE
:100CE000C301B20109DB6B017C0120E030E040E888
:100CF00053E426D56FEF87FF0CC020E030E0A90158
:100D0000C701B601A0D660E087FD03C0C701B601E8
:100D10001BD58CE08BDA26960FB6F894DEBF0FBE9B
:100D2000CDBFDF91CF911F910F91FF90EF90DF909A
:100D3000CF90BF90AF909F908F907F906F905F907B
:100D40004F903F9008950330110509F444C00430DA
:100D5000110509F0FACE81E08093B70280E090E0BF
:100D6000A0E8BFE38093CB029093CC02A093CD0286
:100D7000B093CE02EACE86E08093B70280E090E0A6
:100D8000A0E8BFE38093BB029093BC02A093BD0296
:100D9000B093BE02DACE85E08093B70280E090E0A7
:100DA000A0E8BFE38093BF029093C002A093C1026A
:100DB000B093C202CACE84E08093B70280E090E094
:100DC000A0E8BFE38093C3029093C402A093C5023E
:100DD000B093C602BACE82E08093B70280E090E082
:100DE000A0E8BFE38093C7029093C802A093C90212
:100DF000B093CA02AACE0230110509F4A6CE109211
:100E0000C3021092C4021092C5021092C60275CDA0
:100E10006091CF027091D0028091D1029091D20264
:100E200050CF0430110509F402CD20E030E040EA53
:100E300050E4C501B40184D487FFE1CD0130110530
:100E400009F0DDCD332009F4DACD85E08093B902D5
:100E500014CDAF92BF92CF92DF92EF92FF921F9389
:100E6000CF93DF9384E090E031D2C9E1D2E080E01B
:100E7000A82E81E0B82E809148018093B50280E0D1
:100E800090E0A0E2B2E48093AD029093AE02A09312
:100E9000AF02B093B00280E090E0A0EAB2E48093A9
:100EA000B1029093B202A093B302B093B402109235
:100EB0006902C12CD12C7601C394C0926A02D092EF
:100EC0006B02E0926C02F0926D0261E08DE0A6D9B7
:100ED00011E010936E021CA2F50180819181A28124
:100EE000B3818CA79DA7AEA7BFA7CDA2DEA2EFA21C
:100EF000F8A660E170E080E090E062D99BA78AA745
:100F000019A71882F50184859585A685B7858887F8
:100F10009987AA87BB87C982DA82EB82FC8263E168
:100F200070E080E090E04CD99F838E831D8318AAE7
:100F3000F50184899589A689B78988AF99AFAAAF49
:100F4000BBAFC9AADAAAEBAAFCAA60E08AE066D91C
:100F50001DAB1CAEF50180899189A289B38980936C
:100F60005D0290935E02A0935F02B0936002C09214
:100F70005602D0925702E0925802F092590260E075
:100F800088E04CD910935A02188EF501848195811E
:100F9000A681B78188A399A3AAA3BBA3C98EDA8E21
:100FA000EB8EFC8E61E170E080E090E009D99F8FCC
:100FB0008E8F1D8F1C86F50180859185A285B38556
:100FC0008C8B9D8BAE8BBF8BCD86DE86EF86F88AB1
:100FD00062E170E080E090E0F3D89B8B8A8B198B04
:100FE0001092A102C092A202D092A302E092A402A7
:100FF000F092A50261E082E011D91093A60210924E
:101000009902C0929A02D0929B02E0929C02F092C6
:101010009D0261E083E002D910939E02109291023A
:10102000C0929202D0929302E0929402F0929502C2
:1010300061E084E0F3D81093960210928902C09286
:101040008A02D0928B02E0928C02F0928D0261E0D3
:1010500085E0E4D810938E0210928102C092820241
:10106000D0928302E0928402F092850261E086E0F1
:10107000D5D81093860210927902C0927A02D0924B
:101080007B02E0927C02F0927D0261E087E0C6D8AC
:1010900010937E0210926102C0926202D0926302AB
:1010A000E0926402F092650261E089E0B7D81093A3
:1010B000660210927102C0927202D0927302E092A4
:1010C0007402F092750261E08CE0A8D81093760269
:1010D000DF91CF911F91FF90EF90DF90CF90BF9065
:1010E000AF90089580916902811103C081E08093DF
:1010F000690280913D0281111DC081E080933D0213
:1011000080913E0290913F02A0914002B091410235
:101110000197A105B10571F480914202882351F035
:1011200060E170E080E090E007D890934402809303
:10113000430269D88091190281111EC081E0809319
:10114000190280911A0290911B02A0911C02B09189
:101150001D020197A105B10579F480911E02882333
:1011600059F063E170E080E090E00E949C00909371
:10117000200280931F0247D880914902811103C049
:1011800081E08093490280915502811103C081E082
:10119000809355028091310281111EC081E08093BD
:1011A00031028091320290913302A0913402B091C9
:1011B00035020197A105B10579F4809136028823A3
:1011C00059F061E170E080E090E00E949C00909313
:1011D00038028093370217D88091250281111FC0F1
:1011E00081E0809325028091260290912702A091B0
:1011F0002802B09129020197A105B10581F48091DF
:101200002A02882361F062E170E080E090E00E94B1
:101210009C0090932C0280932B020E9403018091EA
:10122000A102811103C081E08093A1028091990203
:10123000811103C081E08093990280919102811114
:1012400003C081E08093910280918902811103C0E3
:1012500081E08093890280918102811103C081E045
:101260008093810280917902811103C081E0809393
:10127000790280916102811103C081E08093610253
:1012800080917102811103C081E080937102089501
:1012900060E070E080E89FE7089560E070E080E83B
:1012A0009FE7089560E070E080E89FEF089560E0B8
:1012B00070E080E89FEF089560E070E080EC9FEFC1
:1012C000089560E070E080EC9FEF0895F5DF609393
:1012D000DF027093E0028093E1029093E202F1DF7B
:1012E0006093D3027093D4028093D5029093D60278
:1012F000CFDF6093DB027093DC028093DD0290937A
:10130000DE02CBDF6093D7027093D8028093D902BC
:101310009093DA02C7DF6093E3027093E402809354
:10132000E5029093E602C3DF6093E7027093E80260
:101330008093E9029093EA020895CF92DF92EF92B0
:10134000FF92CF936B017C01AC019B016091DB02AA
:101350007091DC028091DD029091DE02F1D1C1E05A
:10136000882369F0A70196016091E3027091E4027D
:101370008091E5029091E602E3D18111C0E08C2FCB
:10138000CF91FF90EF90DF90CF900895CF92DF92B2
:10139000EF92FF92CF936B017C01AC019B016091B6
:1013A000D7027091D8028091D9029091DA02C8D107
:1013B000C1E0882369F0A70196016091E70270916E
:1013C000E8028091E9029091EA02BAD18111C0E06D
:1013D0008C2FCF91FF90EF90DF90CF9008950F93D7
:1013E0001F938B019C010027112720783F7701155F
:1013F000110520483F4749F4AB01BC016F777727BF
:1014000081E0452B462B472B09F480E01F910F917B
:101410000895E5CF26E030E040E855E260E070E076
:1014200090E080E000C010926C0110926B01893056
:101430009105E0F4825E954FFC01C3C6270A300A8D
:10144000370A3A0A3D0A400A430A460A4C0A81E032
:1014500090E090936C0180936B018CE791E07EC5E6
:1014600082E090E090936C0180936B01089584E09A
:1014700090E0F8CF88E090E0F5CF80E190E0F2CF07
:1014800080E290E0EFCF80E490E0ECCF80E890E065
:1014900090936C0180936B0180916B0190916C0132
:1014A0009160E0CF1F920F920FB60F9211242F93ED
:1014B0003F934F935F936F937F938F939F93AF93DC
:1014C000BF93EF93FF938FE89DEF909385008093F8
:1014D000840032D0FF91EF91BF91AF919F918F9196
:1014E0007F916F915F914F913F912F910F900FBE20
:1014F0000F901F9018958FE89DEF90938500809333
:101500008400AFE6B0E08C918E7F8C93E0E8F0E051
:1015100080818C7F8083E1E8F0E08081877E80831A
:1015200080818460808380818C7F80838C918160C6
:101530008C93089581E00895CF93DF9300D0CDB7C9
:10154000DEB780916F0191E0980F90936F0188232F
:1015500069F021E030E030937201209371018093B3
:101560006F010F900F90DF91CF910895CE010196FA
:101570000E94250178940E94CB01F89480916F011C
:10158000815080936F018A81882389F080916E0158
:1015900091E0980F90936E01882349F021E030E0AC
:1015A000309372012093710180936E01DACF8091A4
:1015B0006E018823B1F2809170018111D2CF81E058
:1015C0008093700178940E94DE01F89480916E01FE
:1015D000815080936E0180917001815080937001E1
:1015E000C0CFCF93DF931092EC021092EB02DCD2CB
:1015F00011DFC0914A01D0914B011982188229DC78
:10160000F89479DF2881398181E0232B09F080E08B
:101610008093EB02789478948091EB02811107C05B
:1016200061DDF89490E080E0DF91CF91089528810A
:10163000398181E0232B09F480E08093EC029091C2
:10164000EC0281E0911180E08093EB0273DFE4CF44
:101650005058BB27AA270ED0A5C196D130F09BD1F8
:1016600020F031F49F3F11F41EF48BC10EF4E0958D
:10167000E7FB58C1E92FA7D180F3BA1762077307B8
:101680008407950718F071F49EF5D6C10EF4E09525
:101690000B2EBA2FA02D0B01B90190010C01CA012C
:1016A000A0011124FF27591B99F0593F50F4503ED7
:1016B00068F11A16F040A22F232F342F4427585FC9
:1016C000F3CF469537952795A795F0405395C9F7E1
:1016D0007EF41F16BA0B620B730B840BBAF0915099
:1016E000A1F0FF0FBB1F661F771F881FC2F70EC038
:1016F000BA0F621F731F841F48F48795779567950B
:10170000B795F7959E3F08F0B3CF9395880F08F0F3
:101710009927EE0F97958795089577D180F09F3799
:1017200040F491110EF489C160E070E080E89FE31D
:10173000089526F01B16611D711D811DF9C013C18E
:10174000CDD008F481E0089546D188F09F5790F0FD
:10175000B92F9927B751A0F0D1F0660F771F881FD6
:10176000991F1AF0BA95C9F712C0B13081F064D14F
:10177000B1E0089561C1672F782F8827B85F39F0ED
:10178000B93FCCF3869577956795B395D9F73EF435
:1017900090958095709561957F4F8F4F9F4F0895DD
:1017A000E89409C097FB3EF49095809570956195FB
:1017B0007F4F8F4F9F4F9923A9F0F92F96E9BB27B1
:1017C0009395F695879577956795B795F111F8CF2D
:1017D000FAF4BB0F11F460FF1BC06F5F7F4F8F4F98
:1017E0009F4F16C0882311F096E911C0772321F08E
:1017F0009EE8872F762F05C0662371F096E8862F26
:1018000070E060E02AF09A95660F771F881FDAF77C
:10181000880F9695879597F90895F7D080F09F37B0
:1018200040F491110EF009C160E070E080E89FEB98
:10183000089526F41B16611D711D811D79C093C08A
:10184000A3D018F011F0A7D038F49BC0F6C0E92F50
:10185000BAD0B0F35523C9F3E7FB621773078407C7
:101860009507A8F199F3E92FFF2788232AF03197EC
:10187000660F771F881FDAF7952F5527442332F01C
:1018800091505040220F331F441FD2F7BB27E91B52
:10189000F50B621B730B840BB109C1F222F4620FCA
:1018A000731F841FB11D31972AF0660F771F881FA1
:1018B000BB1FEFCF915050405AF041F0882332F0D7
:1018C000660F771F881F91505040C1F793954BC00A
:1018D0008695779567959F5FD9F7F8CF990F0008A0
:1018E000550FAA0BE0E8FEEF16161706E807F907F2
:1018F000C0F012161306E407F50798F0621B730B8D
:10190000840B950B39F40A2661F0232B242B252B0D
:1019100021F408950A2609F4A140A6958FEF811DB0
:10192000811D089597F99F6780E870E060E0089551
:10193000882371F4772321F09850872B762F07C0E6
:10194000662311F499270DC09051862B70E060E05A
:101950002AF09A95660F771F881FDAF7880F9695F9
:10196000879597F908959F3F31F0915020F487951E
:1019700077956795B795880F911D9695879597F9F7
:1019800008959FEF80EC089500240A941616170618
:1019900018060906089500240A9412161306140660
:1019A00005060895092E0394000C11F4882352F0C3
:1019B000BB0F40F4BF2B11F460FF04C06F5F7F4F7B
:1019C0008F4F9F4F089557FD9058440F551F59F062
:1019D0005F3F71F04795880F97FB991F61F09F3F1C
:1019E00079F087950895121613061406551FF2CF45
:1019F0004695F1DF08C0161617061806991FF1CF95
:101A000086957105610508940895E5DFA0F0BEE7AD
:101A1000B91788F4BB279F3860F41616B11D672FDD
:101A2000782F8827985FF7CF869577956795B11DB2
:101A300093959639C8F30895E894BB2766277727CE
:101A4000CB0197F908954ADF08F48FEF08950BD082
:101A5000A9CF9ADF28F09FDF18F0952309F062CF15
:101A600090CF1124EACFAFDFA0F3959FD1F3950F6C
:101A700050E0551F629FF001729FBB27F00DB11D12
:101A8000639FAA27F00DB11DAA1F649F6627B00DA2
:101A9000A11D661F829F2227B00DA11D621F739F8B
:101AA000B00DA11D621F839FA00D611D221F749F99
:101AB0003327A00D611D231F849F600D211D822FE0
:101AC000762F6A2F11249F5750408AF0E1F0882327
:101AD0004AF0EE0FFF1FBB1F661F771F881F915034
:101AE0005040A9F79E3F510570F01CCFA6CF5F3F35
:101AF000ECF3983EDCF3869577956795B795F79567
:101B0000E7959F5FC1F7FE2B880F911D96958795EE
:101B100097F908951F920F920FB60F9211242F93E9
:101B20003F938F939F93AF93BF9380917401909154
:101B30007501A0917601B09177013091730123E096
:101B4000230F2D3758F50196A11DB11D2093730168
:101B50008093740190937501A0937601B0937701FF
:101B60008091780190917901A0917A01B0917B01E7
:101B70000196A11DB11D8093780190937901A093E6
:101B80007A01B0937B01BF91AF919F918F913F916B
:101B90002F910F900FBE0F901F90189526E8230FDE
:101BA0000296A11DB11DD2CF789484B5826084BD08
:101BB00084B5816084BD85B5826085BD85B5816051
:101BC00085BDEEE6F0E0808181608083E1E8F0E0B1
:101BD0001082808182608083808181608083E0E8E0
:101BE000F0E0808181608083E1EBF0E080818460BF
:101BF0008083E0EBF0E0808181608083EAE7F0E0C1
:101C00008081846080838081826080838081816024
:101C100080838081806880831092C10008958E3017
:101C200008F08E502091490190E4299F90011124E1
:101C30008770822B80937C0080917A0080648093EF
:101C40007A0080917A0086FDFCCF80917800909197
:101C500079000895833081F028F4813099F0823042
:101C6000A9F008958730A9F08830C9F08430B1F424
:101C7000809180008F7D03C0809180008F7780935A
:101C80008000089584B58F7784BD089584B58F7DD5
:101C9000FBCF8091B0008F778093B0000895809142
:101CA000B0008F7DF9CFCF93DF9390E0FC01E45833
:101CB000FF4F249180579F4FFC0184918823C9F0E6
:101CC00090E0880F991FFC01E854FF4FA591B49153
:101CD000FC01E255FF4FC591D49161110DC09FB732
:101CE000F8948C91209582238C93888128232883D3
:101CF0009FBFDF91CF910895623051F49FB7F89460
:101D00003C91822F809583238C93E8812E2BEFCFFB
:101D10008FB7F894EC912E2B2C938FBFEACF1F93A3
:101D2000CF93DF93282F30E0F901E859FF4F8491DA
:101D3000F901E458FF4FD491F901E057FF4FC491E6
:101D4000CC23A1F0162F811185DFEC2FF0E0EE0FF0
:101D5000FF1FE255FF4FA591B4918FB7F894EC9116
:101D6000111108C0D095DE23DC938FBFDF91CF9196
:101D70001F910895DE2BF8CFCF93DF93282F30E00B
:101D8000F901E859FF4F8491F901E458FF4FD491CC
:101D9000F901E057FF4FC491CC2399F081115ADF2C
:101DA000EC2FF0E0EE0FFF1FEC55FF4FA591B49123
:101DB000EC91ED2381E090E009F480E0DF91CF9198
:101DC000089580E090E0FACFFC01918D228D892F5B
:101DD00090E0805C9F4F821B91098F739927089533
:101DE000FC01918D828D981731F0828DE80FF11DE5
:101DF000858D90E008958FEF9FEF0895FC01918D00
:101E0000828D981761F0A28DAE0FBF2FB11D5D9628
:101E10008C91928D9F5F9F73928F90E008958FEFCA
:101E20009FEF0895FC01538D448D252F30E0842FC2
:101E300090E0821B930B541710F0CF9608950197F2
:101E40000895FC01A48DA80FB92FB11DA35ABF4F4F
:101E50002C91848D90E001968F739927848FA689A9
:101E6000B7892C93A089B1898C91837080648C93FD
:101E7000938D848D981306C00288F389E02D8081AC
:101E80008F7D80830895CF93DF93EC01888D882325
:101E9000B1F0AA89BB89E889F9898C9185FD03C0D5
:101EA000808186FD0CC00FB607FCF7CF8C9185FFB3
:101EB000F2CF808185FFEDCFCE01C3DFEACFDF9186
:101EC000CF910895EF92FF920F931F93CF93DF93DB
:101ED000EC0181E0888F9B8D8C8D98131AC0E88966
:101EE000F989808185FF15C09FB7F894EE89FF8935
:101EF0006083E889F98980818370806480839FBFD3
:101F000081E090E0DF91CF911F910F91FF90EF90D2
:101F10000895F62E0B8D10E00F5F1F4F0F731127E2
:101F2000E02E8C8D8E110BC00FB607FCFACFE8891E
:101F3000F989808185FFF5CFCE0183DFF2CFEB8D6C
:101F4000EC0FFD2FF11DE35AFF4FF0829FB7F8947D
:101F50000B8FEA89FB8980818062D0CFCF92DF929C
:101F6000EF92FF921F93CF93DF93EC016A017B0105
:101F7000122FE889F98982E08083C11481EED806A6
:101F8000E104F10499F060E079E08DE390E0A701CD
:101F90009601F5D0215031094109510956954795CF
:101FA00037952795211580E1380790F0E889F98960
:101FB000108260E874E88EE190E0A7019601DFD01E
:101FC0002150310941095109569547953795279573
:101FD000EC85FD853083EE85FF852083188EEC89A6
:101FE000FD891083EA89FB89808180618083EA8989
:101FF000FB89808188608083EA89FB898081806891
:102000008083EA89FB8980818F7D8083DF91CF91F6
:102010001F91FF90EF90DF90CF9008951F920F9245
:102020000FB60F9211242F938F939F93EF93FF93EB
:10203000E0918C01F0918D018081E0919201F0910D
:10204000930182FD1BC09081809195018F5F8F73FA
:1020500020919601821741F0E0919501F0E0E4585B
:10206000FE4F958F80939501FF91EF919F918F91F6
:102070002F910F900FBE0F901F9018958081F4CF75
:102080001F920F920FB60F9211242F933F934F93ED
:102090005F936F937F938F939F93AF93BF93EF93D0
:1020A000FF938CE791E0CDDEFF91EF91BF91AF916F
:1020B0009F918F917F916F915F914F913F912F9160
:1020C0000F900FBE0F901F901895ECE7F1E0138270
:1020D000128288EE93E0A0E0B0E084839583A6832B
:1020E000B78380E591E09183808385EC90E09587CC
:1020F000848784EC90E09787868780EC90E0918BD2
:10210000808B81EC90E0938B828B82EC90E0958BBE
:10211000848B86EC90E0978B868B118E128E138EBB
:10212000148E0895AF92BF92CF92DF92EF92FF92FA
:102130000F931F93CF93DF936C017B018B01040FEF
:10214000151FEB015E01AE18BF08C017D10759F08B
:102150006991D601ED91FC910190F081E02DC601CD
:102160000995892B79F7C501DF91CF911F910F91C7
:10217000FF90EF90DF90CF90BF90AF900895A1E2D5
:102180001A2EAA1BBB1BFD010DC0AA1FBB1FEE1FF1
:10219000FF1FA217B307E407F50720F0A21BB30B3C
:1021A000E40BF50B661F771F881F991F1A9469F7B8
:1021B00060957095809590959B01AC01BD01CF0114
:1021C0000895EE0FFF1F0590F491E02D0994F89407
:0221D000FFCF3F
:1021D200000080BF000080BF000080BF000080BF01
:1021E200CDCCCC3DCDCCCC3D0000000000000000A9
:1021F2000000803F000000400000000000000000DE
:102202000820803A0820803A0820803B0A28A03B18
:1022120000007042000070C200016701000000006F
:0E222200620F9210120F430FE40EFE0EF00E2C
:00000001FF
